:020000040000FA
:04000000FEEFFFF020
:020000040001F9
:04FEAC00120012002E
:10FEB10021120C201008010204000EBE6E000EC6B5
:10FEC1006E000E0401006F1200800EBE6E900E03D4
:10FED100011A6F540E1B6F1200000E096E000E0AFC
:10FEE1006E000E0B6E000E0C6E000E056E000E06FF
:10FEF1006E000E076E000E086E120003011A517F8C
:10FF01000B1A6F1A1C1C6E1B1C1D6E1D50196F1CC9
:10FF1100500F0B186FB1507F0BB16E1A51800F1A31
:10FF21006F1200B10EF66EFE0EF76E010EF86E0145
:10FF3100EE11F110EE09F00900F5C4EEF4E550E11F
:10FF410050FAE101EE01F1100EEE6AE806FDE10062
:10FF510001ABEFFFF0048E56ECFFF06DECFFF05DAE
:10FF6100ECFFF065ECFFF0CDECFFF0BE9E57ECFF2F
:10FF7100F0030E1B6EE80E1A6E7EECFFF0800EB1E0
:10FF810018D8A4C6EFFFF0C8EFFFF0BFEFFFF0BE37
:10FF91008EB4EFFFF0FEEFFFF021EE11F111EE1A3A
:10FFA100F1080EDBC4E3F4E806FCE2F40E0D5C019B
:10FFB1000E0E58D8B0DFEFFFF0E1EFFFF0E5EFFFF5
:10FFC100F00D4A0E2AFDEFFFF01A0E0F24D96EDA5A
:10FFD1006A050EDA22DF50BE6E0F2A090E0F18D8FD
:10FFE100A4F5EFFFF0F7EFFFF0F9EFFFF0000E0FD0
:0FFFF1006E000E0E6E000E0D6E120092EFFFF0FE
:020000040020DA
:10000000FF0FFF0FFF0FFF0FFF0FFF0FFF0FFF0F80
:10001000FF0FFF0FFF0FFF0FFF0FFF0FFF0FFF0F70
:020000040030CA
:0A0000008CFEFFFC9FFFFFFFFFFFD7
:00000001FF
