:020000040000FA
:04000000FEEFFFF020
:020000040001F9
:10FF3F0080120012001200000EBE6E000EC66E0080
:10FF4F000E0401006FCE8E1200000E096E000E0A15
:10FF5F006E000E0B6E000E0C6E000E056E000E0680
:10FF6F006E000E076E000E086E1200048EA0ECFFDE
:10FF7F00F0ACECFFF0A3ECFFF0A2ECFFF0E1ECFF34
:10FF8F00F0A1ECFFF0C6EFFFF0FEEFFFF03F0EF633
:10FF9F006EFF0EF76E010EF86E09006100D4F310BC
:10FFAF00F501EE01F10D0EEE6AE806FDE10001BD6F
:10FFBF00EFFFF0C00E1060E7EFFFF0E9EFFFF0FB8F
:10FFCF00EFFFF0610040F4BEF4150E0F6E4B0E0EF6
:10FFDF006EBE0EE82EFED70E2EFCD70F2EFAD700D0
:10FFEF00D0102AFDEFFFF0800E106E1200CEEFFF43
:01FFFF00F011
:020000040020DA
:10000000FF0FFF0FFF0FFF0FFF0FFF0FFF0FFF0F80
:10001000FF0FFF0FFF0FFF0FFF0FFF0FFF0FFF0F70
:020000040030CA
:0A0000008CFEFFFC9FFFFFFFFFFFD7
:00000001FF
