:020000040000FA
:04000000FEEFFFF020
:020000040001F9
:10FEE80012001200120080000000000EBE6E000E0C
:10FEF800C66E000E0401006FCE8E000EBF6E010E9E
:10FF0800C76E000E086F1200000E096E000E0A6E12
:10FF1800000E0B6E000E0C6E000E056E000E066EC7
:10FF2800000E076E000E086E1200048E74ECFFF0CF
:10FF380088ECFFF079ECFFF076ECFFF0C3ECFFF013
:10FF480075ECFFF0A2EFFFF0FEEFFFF0EE0EF66E9D
:10FF5800FE0EF76E010EF86E01EE0EF110EE04F0D3
:10FF68000900F5C4EEF4E550E150FAE101EE01F1C3
:10FF78000D0EEE6AE806FDE1000199EFFFF0000EB4
:10FF8800CFBA010E126E000ECFBA010E136E130413
:10FF9800D8A4D1EFFFF0D3EFFFF0E4EFFFF0125059
:10FFA800D8A4D9EFFFF0DBEFFFF0E4EFFFF0010E8C
:10FFB8000E26000E0F2210221122610038F4BEF422
:10FFC80013C512F5115010100F1009E1C00E0E5C88
:10FFD800D8A0F1EFFFF0F3EFFFF0C7EFFFF0800ECE
:10FFE8000E6E000E0F6E000E106E000E116EC7EF33
:08FFF800FFF01200AAEFFFF078
:020000040020DA
:10000000FF0FFF0FFF0FFF0FFF0FFF0FFF0FFF0F80
:10001000FF0FFF0FFF0FFF0FFF0FFF0FFF0FFF0F70
:020000040030CA
:0A0000008CFEFFFC9FFFFFFFFFFFD7
:00000001FF
