:020000040000FA
:04000000FEEFFFF020
:020000040001F9
:10FF140012001200000EBE6E000EC66E000E04012A
:10FF2400006F1200800EBE6E900E03011A6F540E05
:10FF34001B6F120001EE01F10F0EEE6AE806FDE1FF
:10FF44000001DCEFFFF0000E096E000E0A6E000ED9
:10FF54000B6E000E0C6E000E056E000E066E000E8B
:10FF6400076E000E086E12000D4A0E2AF40E0D18CC
:10FF740006E10E04D8A4C1EFFFF0C3EFFFF0C7EF12
:10FF8400FFF0000E0E6E000E0D6E120003011A51EA
:10FF94007F0B1A6F101C126E111C136E1350196F05
:10FFA40012500F0B186FB1507F0BB16E1A51800FA6
:10FFB4001A6F1200048E8AECFFF0A5ECFFF08CECB3
:10FFC400FFF094ECFFF0B6ECFFF0BE9E8BECFFF07C
:10FFD400030E116EE80E106EC8ECFFF0800EB1181F
:10FFE400D8A4F7EFFFF0F9EFFFF0F0EFFFF0BE8ECB
:0CFFF400E5EFFFF0FEEFFFF09CEFFFF0E8
:020000040020DA
:10000000FF0FFF0FFF0FFF0FFF0FFF0FFF0FFF0F80
:10001000FF0FFF0FFF0FFF0FFF0FFF0FFF0FFF0F70
:020000040030CA
:0A0000008CFEFFFC9FFFFFFFFFFFD7
:00000001FF
